:1000000007C1000033C1000031C100002FC1000052
:100010002DC100002BC1000029C1000027C1000034
:1000200025C1000023C1000021C100001FC1000044
:100030001DC100001BC1000019C1000017C1000054
:1000400015C1000013C1000011C100000FC1000064
:100050000DC100000BC1000009C10000CAC40000AE
:1000600005C1000090C4000065C40000FFC000008E
:10007000FDC00000FBC00000F9C00000F7C0000098
:10008000F5C00000F3C00000F1C00000EFC00000A8
:10009000EDC00000EBC00000E9C00000F4C40000A7
:1000A000E5C00000E3C00000E1C00000DFC00000C8
:1000B000DDC00000DBC00000D9C00000D7C00000D8
:1000C000D5C00000D3C00000D1C00000CFC00000E8
:1000D000CDC00000CBC00000C9C00000C7C00000F8
:1000E000C5C000007D0280026F0273027702B70272
:1000F000840288028E02920296029C02A002A4024E
:10010000B702AA02AE02B20200000A0B02090C0DED
:100110000E080703040100000000000000000000BA
:1001200000000000000000000000000000000000CF
:10013000000000001211100000000000000000008C
:1001400000000000000000000000000000000000AF
:100150002200250028002B002E003100340002016F
:100160000000050108010B01000021002400270008
:100170002A002D00300033000101000004010701B6
:100180000A0105050505070508080808020202021C
:100190000A0A080804040404010101010101010123
:1001A0000303030303030303040707070C0C0C0CEE
:1001B0000C0C0C0C020202020606060606060606D7
:1001C0000B0B0B0B0B0B0B0B010210202008081064
:1001D00020401020408002010201080402010102B7
:1001E0000408102040808040201008040201800490
:1001F00002018040201008040201080402010102EB
:100200000408102040800102040810204080740679
:1002100011241FBECFEFD1E2DEBFCDBF00E00CBF87
:1002200012E0A0E0B2E0E0E1F0E100E00BBF02C0CC
:1002300007900D92AC34B107D9F723E0ACE4B2E0FB
:1002400001C01D92A438B207E1F711E0C8E0D1E087
:1002500000E005C021970109802FFE01CBD6C730F1
:10026000D10780E00807B1F778D5D0C6C9CE90E0B5
:10027000FC01E853FE4F2491FC01EE57FE4F8491A0
:10028000882399F090E0880F991FFC01E859FE4FF0
:10029000A591B491FC01E25BFE4F859194918FB7DB
:1002A000F894EC91E22BEC938FBF0895CF92DF92FC
:1002B000EF92FF920F931F93CF93DF936C017A011C
:1002C0008B01C0E0D0E0CE15DF0589F0D8016D913B
:1002D0008D01D601ED91FC910190F081E02DC601D8
:1002E0001995892B11F47E0102C02196ECCFC7012C
:1002F000DF91CF911F910F91FF90EF90DF90CF9002
:100300000895FC01538D448D252F30E0842F90E01B
:10031000821B930B541710F0CF9608950197089500
:10032000FC01918D828D981761F0828DDF01A80FFD
:10033000B11D5D968C91928D9F5F9F73928F90E01F
:1003400008958FEF9FEF0895FC01918D828D98178E
:1003500031F0828DE80FF11D858D90E008958FEFCB
:100360009FEF0895FC01918D228D892F90E0805C94
:100370009F4F821B91098F73992708958BED92E00F
:10038000F1DF21E0892B09F420E0822F0895FC01A0
:10039000848DDF01A80FB11DA35ABF4F2C91848D0E
:1003A00090E001968F739927848FA689B7892C9343
:1003B000A089B1898C9180648C93938D848D9813DE
:1003C00006C00288F389E02D80818F7D80830895A7
:1003D000EF92FF920F931F93CF93DF93EC0181E095
:1003E000888F9B8D8C8D981305C0E889F989808151
:1003F00085FD23C0F62E0B8D10E00F5F1F4F0F738E
:100400001127E02E8C8DE8120BC00FB607FCFACF37
:10041000E889F989808185FFF5CFCE01B8DFF2CF79
:100420008B8DFE01E80FF11DE35AFF4FF0820B8F19
:10043000EA89FB898081806207C0EE89FF89608339
:10044000E889F98980818064808381E090E0DF9190
:10045000CF911F910F91FF90EF900895CF93DF936D
:10046000EC01888D8823C1F0EA89FB89808185FDB4
:1004700005C0A889B9898C9186FD0EC00FB607FC0E
:10048000F5CF808185FFF2CFA889B9898C9185FF4E
:10049000EDCFCE017CDFE8CFDF91CF910895362FED
:1004A00090E0FC01E85FFE4F4491FC01E853FE4FF1
:1004B0002491FC01EE57FE4F9491992309F46AC0F0
:1004C000442309F454C050E0FA013197E231F105B8
:1004D00008F04DC08827EE58FF4F8F4F8BC5809195
:1004E00080008F7707C0809180008F7D03C080914E
:1004F0008000877F809380003AC084B58F7702C0E8
:1005000084B58F7D84BD33C08091B0008F7703C0E8
:100510008091B0008F7D8093B00029C080919000C1
:100520008F7707C0809190008F7D03C080919000ED
:10053000877F809390001BC08091A0008F7707C0B9
:100540008091A0008F7D03C08091A000877F809361
:10055000A0000DC0809120018F7707C080912001FD
:100560008F7D03C080912001877F80932001E92F38
:10057000F0E0EE0FFF1FE25BFE4FA591B4918FB745
:10058000F894EC91311103C020952E2301C02E2B3D
:100590002C938FBF089585ED8093BC008091BC00A3
:1005A00084FDFCCF1092A902089540918302262F6A
:1005B00030E0240F311D21323105DCF42091A902F5
:1005C0002430C9F4FC0180E090E0861758F43091A3
:1005D00083022191DC01AF59BD4FA30FB11D2C93B4
:1005E0000196F3CF80918302680F6093830280E0CD
:1005F000089581E0089582E0089508958FEF9FEFB8
:1006000008958FEF9FEF08958091600290E091959B
:10061000819591090895CF93DF931F921F92CDB7D3
:10062000DEB7CB01642F49835A83BFDF4981842F12
:100630005A81952F0F900F90DF91CF910895CF930E
:10064000DF931F92CDB7DEB7698361E0CE010196DB
:10065000ACDF81E090E00F90DF91CF910895089595
:1006600080E090E00895009761F0FC010190002087
:10067000E9F73197AF01481B590BBC018BED92E0B4
:1006800015CE80E090E00895CF93DF93ECDFEC018E
:1006900084E292E0E8DF8C0F9D1FDF91CF910895F7
:1006A0008F929F92AF92BF920F931F93CF93DF933E
:1006B000CDB7DEB7A1970FB6F894DEBF0FBECDBFA2
:1006C00019A2423008F44AE08E010F5D1F4F842EBC
:1006D000912CA12CB12CA50194016AD4E62FB9016B
:1006E000CA0101501109EA3014F4E05D01C0E95C6F
:1006F000D801EC93232B242B252B69F7C801B3DFFA
:10070000A1960FB6F894DEBF0FBECDBFDF91CF919B
:100710001F910F91BF90AF909F908F90089572D4CA
:10072000CF92DF92EF92FF92CF93DF93C1E08BEDF8
:1007300092E018DE892B09F4C3C08BED92E0F0DD66
:10074000D82F80915F028823B1F080915E028823C8
:1007500009F4A7C080915C0290915D0280319105FF
:1007600068F4FC01E45BFD4FD083019690935D0239
:1007700080935C0237C0D13409F48CC08AE292E0E5
:1007800072DF60915C0270915D0280E090E04AE06F
:1007900087DF83E392E067DFCD2EDD0FDD08EE0813
:1007A000FF08F7FE14C0E091DB02F091DC0201903B
:1007B000F081E02D6DE28BED92E0199566277727A9
:1007C000CB016C197D098E099F094AE003C04AE0FC
:1007D000C701B60165DF84E292E045DF10925D0259
:1007E00010925C0280915C0290915D02409709F04A
:1007F0009ECF10925F0210925E028BE392E044DF84
:100800008091590287BD8091500288BD8091570226
:1008100090E090938900809388008091580290E046
:1008200090938B0080938A00809156028093B3004E
:10083000809155028093B40080915102809398007A
:1008400080914E0280939A0080914F0280939C0089
:10085000809152028093A800809153028093AA0055
:10086000809154028093AC0080914C0280932801C7
:1008700080914D0280932A0180915A0280932C012D
:1008800080915B0280958093D80210925D02109255
:100890005C024DCF80915E02811170CFC0935F02E8
:1008A0009DCFD13451F010925F0210925D021092F0
:1008B0005C0287E292E0E8DE95CFC0935E028ECFC5
:1008C000DF91CF91FF90EF90DF90CF90089556DDAC
:1008D000811125C080E090E0892B41F080E090E01C
:1008E000892B21F00E94000081111BC080E090E064
:1008F000892B41F080E090E0892B21F00E940000DC
:10090000811112C080E090E0892B99F080E090E0A6
:10091000892B79F00E940000811109C0089500DF41
:10092000D9CF0E940000E2CF0E940000EBCF0C94D0
:10093000000008951F920F920FB60F9211240BB66C
:100940000F922F933F934F935F936F937F938F9368
:100950009F93AF93BF93EF93FF938BED92E017DDDF
:10096000FF91EF91BF91AF919F918F917F916F9187
:100970005F914F913F912F910F900BBE0F900FBE43
:100980000F901F9018951F920F920FB60F9211247F
:100990000BB60F922F938F939F93EF93FF93E0915A
:1009A000EB02F091EC028081E091F102F091F20211
:1009B00082FD12C090818091F4028F5F8F7320912D
:1009C000F502821751F0E091F402F0E0E552FD4F9C
:1009D000958F8093F40201C08081FF91EF919F91E8
:1009E0008F912F910F900BBE0F900FBE0F901F9005
:1009F00018951F920F920FB60F9211242F933F93C9
:100A00008F939F93AF93BF938091D4029091D5021F
:100A1000A091D602B091D7023091D30223E0230FE8
:100A20002D3720F40196A11DB11D05C026E8230F26
:100A30000296A11DB11D2093D3028093D4029093FE
:100A4000D502A093D602B093D7028091CF029091A5
:100A5000D002A091D102B091D2020196A11DB11D88
:100A60008093CF029093D002A093D102B093D20290
:100A7000BF91AF919F918F913F912F910F900FBE9A
:100A80000F901F9018951F920F920FB60F9211247E
:100A90000BB60F922F933F934F935F936F937F9378
:100AA0008F939F93AF93BF93EF93FF938091B90080
:100AB000887F803609F49CC068F5883209F45BC0F1
:100AC00090F4803109F454C038F4882309F4F6C056
:100AD000883009F44DC0F5C0883109F44CC080322B
:100AE00009F45DC0EEC0803409F468C048F4803376
:100AF00009F455C0883309F0E4C08093A802D8C037
:100B0000803509F44FC0883509F45DC0883409F098
:100B1000D8C0D6C0883909F4C7C0A8F4883709F40A
:100B200067C038F4883609F463C0803709F460C0C0
:100B3000C8C0883809F4B8C0803909F45FC080386B
:100B400009F0BFC05BC0803B09F486C038F4803A2E
:100B500009F466C0883A09F47FC0B3C0803C09F448
:100B6000A7C0883C09F4A4C0883B09F48AC0A9C086
:100B70008091CE0210C09091CD028091CC02981746
:100B800070F5E091CD0281E08E0F8093CD02F0E010
:100B9000E455FD4F80818093BB0085EC86C0809337
:100BA000A8028EC0E091CD0281E08E0F8093CD022D
:100BB0008091BB00F0E0E455FD4F80839091CD0221
:100BC0008091CC026EC0E091CD0281E08E0F8093C7
:100BD000CD028091BB00F0E0E455FD4F8083809111
:100BE000AB0281116DC081E08093AA0284EA61C0EA
:100BF00083E08093A9021092A702CFCF8091A70231
:100C0000803208F051C0E091A70281E08E0F8093FE
:100C1000A7028091BB00F0E0E957FD4F8083BDCF74
:100C200085EC8093BC001092A9028091A7028032CB
:100C300030F4E091A702F0E0E957FD4F1082609197
:100C4000A70270E0E0918502F091860287E892E0C9
:100C500019951092A70235C084E08093A9021092E2
:100C6000840210928302E0918102F0918202199530
:100C700080918302811105C081E0809383021092EC
:100C80006102E091840281E08E0F80938402F0E0A3
:100C9000EF59FD4F80818093BB0090918402809139
:100CA0008302981708F479CF85E88093BC0009C0C7
:100CB00085EC8093BC001092A90203C01092A80298
:100CC0006ADCFF91EF91BF91AF919F918F917F91DE
:100CD0006F915F914F913F912F910F900BBE0F90AD
:100CE0000FBE0F901F901895EBEDF2E01382128269
:100CF00088EE93E0A0E0B0E084839583A683B78379
:100D000024E032E03183208325EC30E035872487EE
:100D100024EC30E03787268720EC30E0318B208BC5
:100D200021EC30E0338B228B22EC30E0358B248BAE
:100D300026EC30E0378B268B118E128E138E148E9C
:100D4000E8E7F3E01382128284839583A683B78356
:100D500086E192E0918380830895789484B58260DF
:100D600084BD84B5816084BD85B5826085BD85B54F
:100D7000816085BD80916E00816080936E001092CD
:100D80008100809181008260809381008091810048
:100D900081608093810080918000816080938000D9
:100DA0008091B10084608093B1008091B000816037
:100DB0008093B00080919100826080939100809137
:100DC0009100816080939100809190008160809378
:100DD00090008091A10082608093A1008091A10089
:100DE00081608093A1008091A00081608093A00029
:100DF0008091210182608093210180912101816095
:100E00008093210180912001816080932001809155
:100E10007A00846080937A0080917A008260809367
:100E20007A0080917A00816080937A0080917A00C4
:100E3000806880937A001092C100E091EB02F091FB
:100E4000EC0282E08083E091E702F091E8021082F8
:100E5000E091E902F091EA028FEC80831092F302B4
:100E6000E091EF02F091F00286E08083E091ED02E4
:100E7000F091EE02808180618083E091ED02F0913B
:100E8000EE02808188608083E091ED02F091EE02B5
:100E9000808180688083E091ED02F091EE02808194
:100EA0008F7D80838EE392E0EFDB91EA94BD81E059
:100EB00085BD90938000809381009093B0008093D3
:100EC000B10099EA90939000809391009093A000D4
:100ED0008093A100909320018093210117BC18BC3E
:100EE000109289001092880010928B0010928A0054
:100EF0001092B3001092B4001092980010929A00D1
:100F000010929C001092A8001092AA001092AC00BF
:100F10001092280110922A0110922C011092D802EE
:100F200082E0A5D983E0A3D984E0A1D985E09FD947
:100F300086E09DD987E09BD988E099D989E097D947
:100F40008AE095D98BE093D98CE091D98DE08FD947
:100F50008CE28DD98DE28BD98EE289D98BE287D94B
:100F600060E08BE29CDA03E210E01092DA02109269
:100F7000D902C091D902D091DA02CF3FD10509F050
:100F800094F4C8010197F1F78091D80290E0C81756
:100F9000D90719F461E08BE282DA2196D093DA0264
:100FA000C093D902E6CF60E08BE279DA90DCDDCF46
:100FB000A1E21A2EAA1BBB1BFD010DC0AA1FBB1F5D
:100FC000EE1FFF1FA217B307E407F50720F0A21BCF
:100FD000B30BE40BF50B661F771F881F991F1A943C
:100FE00069F760957095809590959B01AC01BD0166
:100FF000CF010895EE0FFF1F881F8BBF0790F6915A
:10100000E02D199481E090E0F89400C0F894FFCFAF
:1010100000000000E801560181012E02B20190019A
:10102000A401000000001F030B033003FD020403B2
:101030000103FE020D0A0053520045522C20766334
:101040003A200020636861723A20004F4B007465BB
:0C105000737432206865786665740000D7
:00000001FF
