:100000000C9462000C9405040C94DE030C948A009A
:100010000C948A000C948A000C948A000C948A0038
:100020000C948A000C948A000C948A000C942C0482
:100030000C948A000C948A000C948A000C948A0018
:100040000C9494030C948A000C9462030C943C036B
:100050000C948A000C948A000C948A000C948A00F8
:100060000C94ED040C948A0000000000240027008A
:100070002A0000000000250028002B0000000000DE
:1000800023002600290004040404040404040202DA
:100090000202020203030303030301020408102007
:1000A0004080010204081020010204081020000012
:1000B0000008000201000003040700000000000027
:1000C00000001B0611241FBECFEFD8E0DEBFCDBF5E
:1000D00011E0A0E0B1E0EEEBF1E102C005900D927D
:1000E000AC32B107D9F722E0ACE2B1E001C01D9219
:1000F000AB37B207E1F710E0C2E6D0E004C02197C9
:10010000FE010E94D208C136D107C9F70E948B06B2
:100110000C94DD080C940000CF92DF92EF92FF92D6
:100120000F931F93CF93DF936C017A018B01C0E093
:10013000D0E0CE15DF0589F0D8016D918D01D60193
:10014000ED91FC910190F081E02DC6010995892B7C
:1001500011F47E0102C02196ECCFC701DF91CF914F
:100160001F910F91FF90EF90DF90CF900895FC01C9
:10017000538D448D252F30E0842F90E0821B930B0C
:10018000541710F0CF96089501970895FC01918DB2
:10019000828D981761F0828DDF01A80FB11D5D96E9
:1001A0008C91928D9F5F9F73928F90E008958FEF57
:1001B0009FEF0895FC01918D828D981731F0828D0B
:1001C000E80FF11D858D90E008958FEF9FEF089562
:1001D000FC01918D228D892F90E0805C9F4F821BC6
:1001E00091098F73992708958AEA91E00E94E800A7
:1001F00021E0892B09F420E0822F0895FC01848DF1
:10020000DF01A80FB11DA35ABF4F2C91848D90E040
:1002100001968F739927848FA689B7892C93A0891B
:10022000B1898C9180648C93938D848D981306C0D2
:100230000288F389E02D80818F7D80830895EF927D
:10024000FF920F931F93CF93DF93EC0181E0888F90
:100250009B8D8C8D981305C0E889F989808185FD77
:1002600024C0F62E0B8D10E00F5F1F4F0F73112768
:10027000E02E8C8DE8120CC00FB607FCFACFE8898F
:10028000F989808185FFF5CFCE010E94FE00F1CF74
:100290008B8DFE01E80FF11DE35AFF4FF0820B8FAB
:1002A000EA89FB898081806207C0EE89FF896083CB
:1002B000E889F98980818064808381E090E0DF9122
:1002C000CF911F910F91FF90EF900895CF93DF93FF
:1002D000EC01888D8823C9F0EA89FB89808185FD3E
:1002E00005C0A889B9898C9186FD0FC00FB607FC9F
:1002F000F5CF808185FFF2CFA889B9898C9185FFE0
:10030000EDCFCE010E94FE00E7CFDF91CF9108959F
:100310008AEA91E00E94E800892B61F08AEA91E084
:100320000E94C600082E000C990B90930701809341
:100330000601EECF08950E94F40081110C9488010B
:100340000895833081F028F4813099F08230A1F053
:1003500008958730A9F08830B9F08430D1F48091C5
:1003600080008F7D03C0809180008F778093800014
:10037000089584B58F7702C084B58F7D84BD0895BC
:100380008091B0008F7703C08091B0008F7D809303
:10039000B0000895CF93DF93282F30E0F901E255A4
:1003A000FF4F8491F901E656FF4FD491F901EA57C6
:1003B000FF4FC491CC2391F081110E94A101EC2F39
:1003C000F0E0EE0FFF1FE458FF4FA591B491EC91C0
:1003D000ED2381E090E021F480E002C080E090E035
:1003E000DF91CF91089582E00E94CA01892B69F4C0
:1003F00086B590E0A0E0B0E08093A6019093A701BD
:10040000A093A801B093A901089516BC08951F9365
:10041000CF93DF93282F30E0F901E255FF4F84910D
:10042000F901E656FF4FD491F901EA57FF4FC49105
:10043000CC23C9F0162F81110E94A101EC2FF0E00E
:10044000EE0FFF1FEE58FF4FA591B4918FB7F894B0
:10045000111105C09C91ED2FE095E92302C0EC91AC
:10046000ED2BEC938FBFDF91CF911F910895CF9328
:10047000DF9390E0FC01E656FF4F2491FC01EA5720
:10048000FF4F8491882361F190E0880F991FFC0150
:10049000E859FF4FC591D491FC01EE58FF4FA5914B
:1004A000B491611109C09FB7F89488812095822387
:1004B0008883EC912E230BC0623061F49FB7F894CF
:1004C0003881822F809583238883EC912E2B2C9367
:1004D0009FBF06C08FB7F894E8812E2B28838FBF6B
:1004E000DF91CF9108953FB7F8948091A101909149
:1004F000A201A091A301B091A40126B5A89B05C0BB
:100500002F3F19F00196A11DB11D3FBFBA2FA92F92
:10051000982F8827820F911DA11DB11DBC01CD010F
:1005200042E0660F771F881F991F4A95D1F70895FB
:100530008F929F92AF92BF92CF92DF92EF92FF92F3
:100540000E9473024B015C0188EEC82E83E0D82E16
:10055000E12CF12C0E947302DC01CB01881999096E
:10056000AA09BB09883E9340A105B10558F021E0D6
:10057000C21AD108E108F10888EE880E83E0981EBF
:10058000A11CB11CC114D104E104F10419F7FF90BE
:10059000EF90DF90CF90BF90AF909F908F90089595
:1005A000089585ED8093BC008091BC0084FDFCCF54
:1005B00010927501089540914F01262F30E0240FCD
:1005C000311D21323105DCF4209175012430C9F44C
:1005D000FC0180E090E0861758F430914F012191A2
:1005E000DC01A35DBE4FA30FB11D2C930196F3CF89
:1005F00080914F01680F60934F0180E0089581E082
:10060000089582E0089508958FEF9FEF08958FEF8A
:100610009FEF089580912C0190E09195819591092B
:100620000895CF93DF9300D0CDB7DEB7CB01642F11
:1006300049835A830E94DB024981842F5A81952F76
:100640000F900F90DF91CF910895CF93DF931F927A
:10065000CDB7DEB7698361E0CE0101960E94DB026F
:1006600081E090E00F90DF91CF910895089580E0B0
:1006700090E008950E94D8081F920F920FB60F9233
:1006800011242F933F934F935F936F937F938F9397
:100690009F93AF93BF93EF93FF938AEA91E00E94F9
:1006A000FE00FF91EF91BF91AF919F918F917F914C
:1006B0006F915F914F913F912F910F900FBE0F90CF
:1006C0001F9018951F920F920FB60F9211242F931F
:1006D0008F939F93EF93FF93E091BA01F091BB0149
:1006E0008081E091C001F091C10182FD12C0908132
:1006F0008091C3018F5F8F732091C401821751F0E5
:10070000E091C301F0E0E655FE4F958F8093C30161
:1007100001C08081FF91EF919F918F912F910F9058
:100720000FBE0F901F9018951F920F920FB60F9249
:1007300011242F933F938F939F93AF93BF938091F7
:100740009D0190919E01A0919F01B091A0013091D7
:100750009C0123E0230F2D3720F40196A11DB11D2C
:1007600005C026E8230F0296A11DB11D20939C0110
:1007700080939D0190939E01A0939F01B093A0014F
:100780008091A1019091A201A091A301B091A40137
:100790000196A11DB11D8093A1019093A201A09388
:1007A000A301B093A401BF91AF919F918F913F910D
:1007B0002F910F900FBE0F901F9018951F920F92C0
:1007C0000FB60F9211242F933F934F935F936F9324
:1007D0007F938F939F93AF93BF93EF93FF93E0919A
:1007E0000201F09103010995FF91EF91BF91AF9143
:1007F0009F918F917F916F915F914F913F912F9139
:100800000F900FBE0F901F9018951F920F920FB66A
:100810000F9211242F933F934F935F936F937F9386
:100820008F939F93AF93BF93EF93FF93E09100015A
:10083000F09101010995FF91EF91BF91AF919F91C7
:100840008F917F916F915F914F913F912F910F9079
:100850000FBE0F901F9018951F920F920FB60F9218
:1008600011242F933F934F935F936F937F938F93B5
:100870009F93AF93BF93EF93FF9380919B0187FF6B
:1008800005C010928500109284001BC020919B012E
:10089000022E000C330B8091770290E02817390765
:1008A00084F480919B01082E000C990BFC01EE0F43
:1008B000FF1F8E0F9F1FFC01ED5AFD4F808186FDAB
:1008C00015C080919B018F5F80939B0120919B01BC
:1008D000022E000C330B8091770290E02817390725
:1008E000C4F480919B018C3064F113C080919B0112
:1008F000082E000C990BFC01EE0FFF1F8E0F9F1F9F
:10090000FC01ED5AFD4F808160E08F730E94070269
:10091000D8CF8091840090918500049680349C49C2
:1009200018F480E49CE905C08091840090918500D2
:10093000049690938900809388008FEF80939B01A9
:100940003BC0209184003091850080919B01082E4E
:10095000000C990BFC01EE0FFF1F8E0F9F1FFC0177
:10096000ED5AFD4F81819281820F931F90938900F0
:100970008093880080919B01082E000C990BFC014C
:10098000EE0FFF1F8E0F9F1FFC01ED5AFD4F808160
:1009900086FF12C080919B01082E000C990BFC0170
:1009A000EE0FFF1F8E0F9F1FFC01ED5AFD4F808140
:1009B00061E08F730E940702FF91EF91BF91AF91A9
:1009C0009F918F917F916F915F914F913F912F9167
:1009D0000F900FBE0F901F9018951F920F920FB699
:1009E0000F9211242F933F934F935F936F937F93B5
:1009F0008F939F93AF93BF93EF93FF938091B90031
:100A0000887F803609F49CC068F5883209F45BC0A1
:100A100090F4803109F454C038F4882309F4F6C006
:100A2000883009F44DC0F6C0883109F44CC08032DA
:100A300009F45DC0EFC0803409F468C048F4803325
:100A400009F455C0883309F0E5C080937401D8C01B
:100A5000803509F44FC0883509F45DC0883409F049
:100A6000D9C0D6C0883909F4C7C0A8F4883709F4BA
:100A700067C038F4883609F463C0803709F460C071
:100A8000C9C0883809F4B8C0803909F45FC080381B
:100A900009F0C0C05BC0803B09F486C038F4803ADE
:100AA00009F466C0883A09F47FC0B4C0803C09F4F8
:100AB000A7C0883C09F4A4C0883B09F48AC0AAC036
:100AC00080919A0110C09091990180919801981796
:100AD00070F5E091990181E08E0F80939901F0E02B
:100AE000E858FE4F80818093BB0085EC86C08093E0
:100AF00074018EC0E091990181E08E0F809399017D
:100B00008091BB00F0E0E858FE4F808390919901FE
:100B1000809198016EC0E091990181E08E0F8093E1
:100B200099018091BB00F0E0E858FE4F80838091EE
:100B3000770181116DC081E08093760184EA61C004
:100B400083E08093750110927301CFCF8091730180
:100B5000803208F051C0E091730181E08E0F8093E4
:100B600073018091BB00F0E0ED5AFE4F8083BDCF52
:100B700085EC8093BC0010927501809173018032E6
:100B800030F4E0917301F0E0ED5AFE4F1082609175
:100B9000730170E0E0915101F091520183E591E021
:100BA00009951092730136C084E08093750110920C
:100BB000500110924F01E0914D01F0914E010995C5
:100BC00080914F01811105C081E080934F01109207
:100BD0002D01E091500181E08E0F80935001F0E0F3
:100BE000E35DFE4F80818093BB0090915001809126
:100BF0004F01981708F479CF85E88093BC000AC0AC
:100C000085EC8093BC001092750104C010927401B1
:100C10000E94D102FF91EF91BF91AF919F918F916F
:100C20007F916F915F914F913F912F910F900FBEE8
:100C30000F901F9018951092AD011092AC0188EEA4
:100C400093E0A0E0B0E08093AE019093AF01A09359
:100C5000B001B093B1012CE031E03093AB012093AF
:100C6000AA0125EC30E03093B7012093B60124ECC3
:100C700030E03093B9012093B80120EC30E030939C
:100C8000BB012093BA0121EC30E03093BD012093E9
:100C9000BC0122EC30E03093BF012093BE0126EC72
:100CA00030E03093C1012093C0011092C301109233
:100CB000C4011092C5011092C60110924A0210920E
:100CC000490280934B0290934C02A0934D02B09343
:100CD0004E028EE191E0909348028093470280910A
:100CE00077028C30A0F491E0980F90937702809374
:100CF000780290E0FC01EE0FFF1F8E0F9F1FFC019A
:100D0000ED5AFD4F88EB9BE09283818308958FEF2E
:100D1000809378020895789484B5826084BD84B508
:100D2000816084BD85B5826085BD85B5816085BDE6
:100D300080916E00816080936E001092810080919E
:100D40008100826080938100809181008160809326
:100D50008100809180008160809380008091B1004B
:100D600084608093B1008091B00081608093B00076
:100D700080917A00846080937A0080917A0082600A
:100D800080937A0080917A00816080937A008091CC
:100D90007A00806880937A001092C100E091BA01D5
:100DA000F091BB0182E08083E091B601F091B70140
:100DB0001082E091B801F091B9018FEC808310921C
:100DC000C201E091BE01F091BF0186E08083E09115
:100DD000BC01F091BD01808180618083E091BC0104
:100DE000F091BD01808188608083E091BC01F09129
:100DF000BD01808180688083E091BC01F091BD01DC
:100E000080818F7D808362E083E00E94370260E012
:100E100082E00E94370283EF91E09093010180937A
:100E20000001809169008C7F816080936900E89A5D
:100E3000809178028C3008F051C061E08BE00E9414
:100E4000370280917802E82FF0E09F01220F331FD4
:100E5000E20FF31FED5AFD4F9081907C9B609083D1
:100E60001092790210927A026CE00E94C6082CE07F
:100E7000829FB001112440E050E09A01260F371FF5
:100E8000F901EE0FFF1F2E0F3F1FF901ED5AFD4F25
:100E9000908196FD16C04F5F5F4F4C30510569F74A
:100EA00081110FC01092800082E080938100109227
:100EB000850010928400B19A80916F0082608093C7
:100EC0006F00E0917802F0E0CF01880F991FE80FE2
:100ED000F91FED5AFD4F80818064808314BC84E04B
:100EE00085BDBDE52B2E312CC0E6CC2ED12CD9E50D
:100EF000ED2EF12CC8E8D0E008E512E084EB882E56
:100F0000912CA12CB12C8091060190910701409168
:100F1000A6015091A7016091A8017091A90160906C
:100F2000A501611027C0841B950B9C0197FF04C08D
:100F300022273327281B390B22303105DCF09C0196
:100F4000215C3F4F2F373105A8F4205231092F3350
:100F5000310540F41816190644F4F0920501E092A8
:100F600004010CC018161906C4F7D0920501C092EE
:100F7000040104C0309205012092040183E00E9424
:100F8000CA0121E0892B09F420E02615F9F00E941E
:100F9000980283E00E94CA0177247394892B09F494
:100FA000712C761499F0E091AA01F091AB010190B7
:100FB000F081E02D772011F068E401C06CE48AEA4A
:100FC00091E009957092A5010E9498028091040118
:100FD00090910501803242E09407E4F597FD06C048
:100FE000853B91052CF084EB90E002C080E090E01E
:100FF000209179022E01421A510827FD5394D20103
:10100000AA0FBB1FAA0FBB1F2D01BB0F66087708D5
:1010100020917A02A801421B510927FD53959A019C
:10102000220F331F220F331FA901330F660B770BDB
:101030009A01AB012419350946095709DC010E94C0
:101040008D08A50194010E946308420E531E641E80
:10105000751EC201609178026C3090F52091790282
:10106000AE01421B510927FD53959A01220F331FF0
:10107000220F331F8217930784F020917A02A80170
:10108000421B510927FD5395440F551F440F551F0F
:101090009C01481759070CF49A0122503109220F7C
:1010A000331F7FB7F894862F90E0AC01440F551F93
:1010B000840F951FFC01ED5AFD4F328321837FBFC2
:1010C0000E949B0120CF052E97FB1EF400940E94E6
:1010D0007A0857FD07D00E94950807FC03D04EF40C
:1010E0000C947A0850954095309521953F4F4F4F7D
:1010F0005F4F089590958095709561957F4F8F4FC4
:101100009F4F08950E94B708A59F900DB49F900D22
:10111000A49F800D911D11240895B7FF0C9482089F
:101120000E948208821B930B0895A1E21A2EAA1B2B
:10113000BB1BFD010DC0AA1FBB1FEE1FFF1FA21787
:10114000B307E407F50720F0A21BB30BE40BF50B84
:10115000661F771F881F991F1A9469F7609570950D
:10116000809590959B01AC01BD01CF010895A29F90
:10117000B001B39FC001A39F700D811D1124911D6B
:10118000B29F700D811D1124911D0895991B79E066
:1011900004C0991F961708F0961B881F7A95C9F707
:1011A00080950895EE0FFF1F0590F491E02D0994AE
:0E11B00081E090E0F8940C94DD08F894FFCFF5
:1011BE00D002D0025D002100000000001F018C0053
:1011CE00B7006601E800C600DA0000000000250343
:0C11DE001103370303030A030703040393
:107E0000112484B714BE81FFF0D085E080938100F7
:107E100082E08093C00088E18093C10086E0809377
:107E2000C20080E18093C4008EE0C9D0259A86E02C
:107E300020E33CEF91E0309385002093840096BBD3
:107E4000B09BFECF1D9AA8958150A9F7CC24DD24C4
:107E500088248394B5E0AB2EA1E19A2EF3E0BF2EE7
:107E6000A2D0813461F49FD0082FAFD0023811F036
:107E7000013811F484E001C083E08DD089C08234E0
:107E800011F484E103C0853419F485E0A6D080C0E4
:107E9000853579F488D0E82EFF2485D0082F10E0AE
:107EA000102F00270E291F29000F111F8ED06801E7
:107EB0006FC0863521F484E090D080E0DECF843638
:107EC00009F040C070D06FD0082F6DD080E0C81688
:107ED00080E7D80618F4F601B7BEE895C0E0D1E017
:107EE00062D089930C17E1F7F0E0CF16F0E7DF06D8
:107EF00018F0F601B7BEE89568D007B600FCFDCFD4
:107F0000A601A0E0B1E02C9130E011968C91119780
:107F100090E0982F8827822B932B1296FA010C0160
:107F200087BEE89511244E5F5F4FF1E0A038BF0790
:107F300051F7F601A7BEE89507B600FCFDCF97BE46
:107F4000E89526C08437B1F42ED02DD0F82E2BD052
:107F50003CD0F601EF2C8F010F5F1F4F84911BD097
:107F6000EA94F801C1F70894C11CD11CFA94CF0C13
:107F7000D11C0EC0853739F428D08EE10CD085E9AC
:107F80000AD08FE07ACF813511F488E018D01DD067
:107F900080E101D065CF982F8091C00085FFFCCF94
:107FA0009093C60008958091C00087FFFCCF809118
:107FB000C00084FD01C0A8958091C6000895E0E648
:107FC000F0E098E1908380830895EDDF803219F02E
:107FD00088E0F5DFFFCF84E1DECF1F93182FE3DFCA
:107FE0001150E9F7F2DF1F91089580E0E8DFEE27F6
:047FF000FF270994CA
:027FFE00040479
:0400000300007E007B
:00000001FF
